S0530000433A5C55736572735C52617A5C446F63756D656E74735C4545203434354C5C4C6162335C4C6162335C62696E5C50726F6A6563742E61627348435331325F53657269616C5F4D6F6E69746F722E61627328
S123C000FEC03DFDC03B270E35ED31EC3169700434FB310326F2FEC03FEC31270BED3118AA
S123C0200A30700434F920F13DCF0900790011CC09395B105A1207C806C09C0001C041C099
S123C040AE09000006C6015B4EFE0902087E0902DC50C342405C50F60240C8017B02400B2F
S123C060C7877C09001C0242014C40014C4C01C6805B46C6035B4D5A60DE441AE0325E5054
S123C0803DC6085B4EFE0904087E0904DC56C303E85C56F60240C8087B02400B07C21C0201
S113C0A05A8010EFF60258C8807B025820F6000030
S105FFE8C081D2
S105FFEEC04508
S105FFFEC02914
S9030000FC
